:030000000200A457
:200008000000E2FBEAF2802C0000E0FBEAF08024E6B50202EBF62200E2B50202EBF22200DE
:20002800E0B50202EBF02230F6E0A88220F5D3EAC6F582228B822230F6E6A88220F5D980EE
:01004800CFE8
:03004C0002004966
:030049000200981A
:20004F007532417401B5300512014780F6853231753001E53204F532E53224A550E57532EE
:20006F004180E0758920758DFA759850D28EE530700512014780F7853199753000209905EC
:1C008F0012014780F8C29980E57530009000721200C902004F0200AB22222222BB
:2000AB007539009000981200C9858238E538243AF98781D0D0D082D083D0E0D0F022753E3F
:2000CB000074FC253E4029853EF005F07E017F008006EE2EFEEF33FFD5F0F7AC397D00EC68
:2000EB005206ED5207EE4F6007E53E04F53E80D17404B53E047582FF22853EF005F0740164
:20010B00800225E0D5F0FB423985813FE53EC454F0FF243FF581C082C0837400C0E0C0E091
:20012B00C0E0C0E0E53EC40354F8F5D0C0D0E53E243AF8A681853F81853E8222C0F0C0E04D
:20014B00C083C082C0D0E538243AF8A681E53804F5387404B538037538008538F005F07E62
:20016B00017F008006EE2EFEEF33FFD5F0F7AC397D00EC5206ED5207EE4F60D1E538243AA2
:20018B00F98781D0D0D082D083D0E0D0F0228538F005F07401800225E0D5F0FBF45239E5BA
:2001AB003804F5387404B538037538008538F005F07E017F008006EE2EFEEF33FFD5F0F799
:2001CB00AC397D00EC5206ED5207EE4F60D1E538243AF98781D0D0D082D083D0E0D0F02267
:00000001FF
