:040000000200DD32EB
:03000B000200E40C
:200010000000E2FBEAF2802C0000E0FBEAF08024E6B50202EBF62200E2B50202EBF22200D6
:20003000E0B50202EBF02230F6E0A88220F5D3EAC6F582228B822230F6E6A88220F5D980E6
:01005000CFE0
:03007E000200512C
:030051000200D1D9
:200081007532417401B5300280F9D20010AF02C200853231753001A20092AFE53204F5329A
:2000A100E53224A550DD75324180D8438920758DFA759850D28EE53060FCD20110AF02C286
:2000C10001853199753000A20192AF1099E880FB7530009000AC1201100200810200EA22A5
:0900E10022222202024002005416
:2000EA0075390075890075A882D28C9000D1120110858238E538243AF98781D0D0D082D04C
:20010A0083D0E0D0F022C2AF753E0074FC253E4029853EF005F07E017F008006EE2EFEEF2B
:20012A0033FFD5F0F7AC397D00EC5206ED5207EE4F6007E53E04F53E80D17404B53E06D249
:20014A00AF7582FF22853EF005F07401800225E0D5F0FB423985813FE53EC454F0FF243F1D
:20016A00F581C082C0837400C0E0C0E0C0E0C0E0E53EC40354F8F5D0C0D0E53E243AF8A6DC
:20018A0081853F81D2AF853E8222C2AFC0F0C0E0C083C082C0D0E538243AF8A681E5380416
:2001AA00F5387404B538037538008538F005F07E017F008006EE2EFEEF33FFD5F0F7AC39F1
:2001CA007D00EC5206ED5207EE4F60D1E538243AF98781D0D0D082D083D0E0D0F0D2AF22CC
:2001EA00C2AF8538F005F07401800225E0D5F0FBF45239E53804F5387404B5380375380044
:20020A008538F005F07E017F008006EE2EFEEF33FFD5F0F7AC397D00EC5206ED5207EE4F8E
:20022A0060D1E538243AF98781D0D0D082D083D0E0D0F0D2AF22C0F0C0E0C083C082C0D04A
:20024A0088338934E506F535E507F536E538243AF8A681E53804F5387404B53803753800F3
:20026A008538F005F07E017F008006EE2EFEEF33FFD5F0F7AC397D00EC5206ED5207EE4F2E
:20028A0060D1E538243AF9873F853F81A833A934E535F506E536F507D0D0D082D083D0E0CB
:0402AA00D0F032223C
:20005400C000A88118C0D0B6001B18B610004015B637005010C0E0E65407B406005004E6D5
:0A00740054F8F6D0E0D0D0D00032EE
:00000001FF
