:0400000002041F32A5
:03000B00020426C6
:200010000000E2FBEAF2802C0000E0FBEAF08024E6B50202EBF62200E2B50202EBF22200D6
:20003000E0B50202EBF02230F6E0A88220F5D3EAC6F582228B822230F6E6A88220F5D980E6
:01005000CFE0
:03007E000200512C
:030051000202ACFC
:20008100753300E52160FC20E7F91521E526600685253375260005212285277985287AC3DF
:2000A10074E795797403957A50067579E7757A03757B00C3E5799464E57A94004013E57986
:2000C100249CF579E57A34FFF57AE57B04F57B80E2757C00C3E579940AE57A94004013E5DF
:2000E1007924F6F579E57A34FFF57AE57C04F57C80E2757D00E57B6010E57D242DF9AF7B2D
:2001010074302FF7E57D04F57DE57B7004E57C6010E57D242DF9AF7C74302FF7E57D04F59B
:200121007DE57D242DF9AF7974302FF7E57D04F57DE57D242DF87600221206F075310012C8
:2001410006F6E5826028E5317027753101120703858232E532601AE52160FC20E7F91521E1
:20016100E5267006853225752601052180037531001204D680C91205ED75089B75090775EB
:2001810082081206BF7508A37509077582101206BFE52160FC20E7F91521852271852472AF
:2001A100852975852A76852B77852C7805217401B57102800302023F7582801206007573A6
:2001C1000074F025734032E5737009E5727005757401800DE57530E00575740280037574D6
:2001E1002085748212066AE576C313C57513C575F576E57304F57380C87582C0120600756E
:20020100730074F0257350030202A6E573700A7401B57205757401800DE57730E00575742D
:2002210002800375742085748212066AE578C313C57713C577F578E57304F57380C4E571A9
:2002410070337582801206009007AB75F0801206947582C01206009007BC75F080120694E5
:20026100AF2374302FF58212066A9007C475F08012069480307582801206009007CD75F0EB
:20028100801206947582C01206009007DE75F08012069490002D75F0401206949007E6755C
:2002A100F0801206941204D602019275210175260075220075230090013A12045C900177FA
:2002C10012045C12008185333474D02534500EE53424C64008E53424D0F52380077423B5EE
:2002E100340280051204D680DAE52160FC20E7F91521E4F529F52AF52BF52CF524F527F5D8
:200301002875220105217535007537A51200818533347432B5340575240080087438B53432
:2003210003752401E52160FC20E7F91521E5246007AF2B5307018006AE2974015EFF8F70B4
:200341000521E5706003020409AF23740AC39FF536E53625362536FF2403F536E536600A2B
:200361001204D6E53614F53680F2E52160FC20E7F91521E5247014E52B30E021AE27AF28B2
:2003810074012EF527E43FF5288012E52930E00DAE27AF2874012EF527E43FF528E52AC323
:2003A10013C52913C529F52AE52CC313C52B13C52BF52C0521E53504F53574FE2535504254
:2003C100753500E53730E00AE537C313FF6307B88005E537C313FF8F37E52160FC20E7F98B
:2003E1001521E52B4529FEE52C452AFF20E611E53730E007E52B432C808005E529432A8002
:2004010005211204D602030D12009AE52160FC20E7F9152175220205211204D680FB020447
:0B0421002C2222222202058C02005433
:20079B000705060714170E0A04051515160C040453657420302D39207468656E2023202051
:2007BB00004C6576656C3A200020202020202020200047616D65204F7665722020202020F6
:1307DB0020200053636F72653A2000202020202020200095
:20042C00753C009002AC12045C85823DC2AFE53D2438F98781D0D0D083D082D0F0D0E0D096
:20044C0007D006D005D004D003D002D001D00022C2AF753E0074FC253E4018853EF005F0AB
:20046C00E53C8002C313D5F0FB30E007E53E04F53E80E27404B53E06D2AF7582FF22853E97
:20048C00F005F07401800225E0D5F0FB423C85813FE53EC454F02440FF8F81C082C083E4E5
:2004AC00C0E0C0E0C0E0C0E0C0E0C0E0C0E0C0E0C0E0C0E0C0E0C0E0C0E0E53E2438F8A6F3
:2004CC0081853F81D2AF853E8222C2AFC000C001C002C003C004C005C006C007C0E0C0F085
:2004EC00C082C083C0D0E53D2438F8A681E53DFF045403F53D853DF005F0E53C8002C31370
:20050C00D5F0FB30E0E7E53D2438F98781D0D0D083D082D0F0D0E0D007D006D005D004D0BE
:20052C0003D002D001D000D2AF22C2AF853DF005F07401800225E0D5F0FBF4523CE53C70AF
:20054C000280FEE53DFF045403F53D853DF005F0E53C8002C313D5F0FB30E0E7E53D24380C
:20056C00F98781D0D0D083D082D0F0D0E0D007D006D005D004D003D002D001D000D2AF227A
:20058C00C000C001C002C003C004C005C006C007C0E0C0F0C082C083C0D0E53D2438F8A6B2
:2005AC0081E53DFF045403F53D853DF005F0E53C8002C313D5F0FB30E0E7E53D2438F9872B
:1D05CC0081D0D0D083D082D0F0D0E0D007D006D005D004D003D002D001D0003222EC
:2005E9008520822212064075820612060075820F12060075200122AF8275200074F05FF5E8
:2006090090D292C292EFC454F0F590D292C292758228C0071206ECD007BF01028003BF028E
:20062900127F00758228C0071206ECD0070FBF1E0040F075200122752000759020D292C2AB
:20064900927582281206ECD292C2927582281206ECD297D292C2927582281206EC75200127
:2006690022AF8275200074F05F4408F590D293D292C292EFC454F0FF74084FF590D292C26C
:20068900927582281206EC75200122AD82AE83AFF08D828E838FF012077FFC60188C82C06C
:2006A90007C006C00512066AD005D006D0070DBD00DF0E80DC22AF8274404FF582120600A3
:2006C9007F00EF2508F582E43509F583E493F582C00712066AD0070FBF080040E5758280E5
:0706E900020600D582FD228C
:2006F000D2B37580F0227580F0A2B3B39200E433F582227580F774B7B58004758231227421
:20071000D7B580047582322274E7B58004758233227580FB74BBB580047582342274DBB5E5
:2007300080047582352274EBB58004758236227580FD74BDB580047582372274DDB58004BA
:200750007582382274EDB58004758239227580FE74BEB5800475822A2274DEB58004758229
:0F077000302274EEB58004758223227582002238
:20005400C000A88118C0D0B6001B18B610004015B637005010C0E0E65407B406005004E6D5
:0A00740054F8F6D0E0D0D0D00032EE
:1C077F0020F71430F6148883A88220F507E6A88375830022E280F7E49322E02289
:00000001FF
