:040000000201923235
:03000B0002019956
:200010000000E2FBEAF2802C0000E0FBEAF08024E6B50202EBF62200E2B50202EBF22200D6
:20003000E0B50202EBF02230F6E0A88220F5D3EAC6F582228B822230F6E6A88220F5D980E6
:01005000CFE0
:03007E000200512C
:0300510002016F3A
:20008100AF82E52160FC20E7F9152174FD25224019E5242425F8A607E52404F5247403B53C
:2000A1002403752400E52204F5220521227F00E52160FC20E7F91521E5226019E52324252D
:2000C100F98707E52304F5237403B52303752300E52214F52205218F82227F0075A0FFC0AC
:2000E10007120463E582D007601DEF701C7F01C007120474AE82D007EEFD600D8D82C00743
:20010100120081D00780027F00C007120249D00780CD7F00C007120500D007C00712050613
:20012100E582D007601DEF701C7F01C007120513AE82D007EEFD600D8D82C007120081D07F
:200141000780027F00C007120249D00780CD1203601200AEE582FE6010C00612035CE582A6
:20016100D00660058E821203DD12024980E3C2A97521017522007523007524009000DB123A
:1E01810001CF9001131201CF90014F1201CF0202A902019F222222220202FF02005418
:20019F00753C0090016F1201CF85823DC2AFE53D2438F98781D0D0D083D082D0F0D0E0D0F4
:2001BF0007D006D005D004D003D002D001D00022C2AF753E0074FC253E4018853EF005F03B
:2001DF00E53C8002C313D5F0FB30E007E53E04F53E80E27404B53E06D2AF7582FF22853E27
:2001FF00F005F07401800225E0D5F0FB423C85813FE53EC454F02440FF8F81C082C083E475
:20021F00C0E0C0E0C0E0C0E0C0E0C0E0C0E0C0E0C0E0C0E0C0E0C0E0C0E0E53E2438F8A682
:20023F0081853F81D2AF853E8222C2AFC000C001C002C003C004C005C006C007C0E0C0F014
:20025F00C082C083C0D0E53D2438F8A681E53DFF045403F53D853DF005F0E53C8002C313FF
:20027F00D5F0FB30E0E7E53D2438F98781D0D0D083D082D0F0D0E0D007D006D005D004D04E
:20029F0003D002D001D000D2AF22C2AF853DF005F07401800225E0D5F0FBF4523CE53C703F
:2002BF000280FEE53DFF045403F53D853DF005F0E53C8002C313D5F0FB30E0E7E53D24389C
:2002DF00F98781D0D0D083D082D0F0D0E0D007D006D005D004D003D002D001D000D2AF220A
:2002FF00C000C001C002C003C004C005C006C007C0E0C0F0C082C083C0D0E53D2438F8A642
:20031F0081E53DFF045403F53D853DF005F0E53C8002C313D5F0FB30E0E7E53D2438F987BA
:1D033F0081D0D0D083D082D0F0D0E0D007D006D005D004D003D002D001D00032227B
:20035C00852082221203B375820612037375820F12037375200122AF8275200074F05FF527
:20037C0090D292C292EFC454F0F590D292C292758228C00712045FD007BF01028003BF02AD
:20039C00127F00758228C00712045FD0070FBF1E0040F075200122752000759020D292C2CA
:2003BC009275822812045FD292C29275822812045FD297D292C29275822812045F75200164
:2003DC0022AF8275200074F05F4408F590D293D292C292EFC454F0FF74084FF590D292C2FC
:2003FC009275822812045F75200122AD82AE83AFF08D828E838FF012058FFC60188C82C07D
:20041C0007C006C0051203DDD005D006D0070DBD00DF0E80DC22AF8274404FF58212037352
:20043C007F00EF2508F582E43509F583E493F582C0071203DDD0070FBF080040E575828004
:07045C00020373D582FD22AB
:2004630074FFB5A003D38001C3B39200E433F58222AEA07F00EEF4FEEFF4EE30E704758212
:200483003722AEA07F00EEF4FEEFF4EE30E60475823622AEA07F00EEF4FEEFF4EE30E50482
:2004A30075823522AEA07F00EEF4FEEFF4EE30E40475823422AEA07F00EEF4FEEFF4EE305A
:2004C300E30475823322AEA07F00EEF4FEEFF4EE30E20475823222AEA07F00EEF4FEEFF477
:1D04E300EE30E10475823122AEA07F00EEF4FEEFF4EE30E0047582302275820022BB
:20050000D2B37580F0227580F0A2B3B39201E433F582227580F774B7B58004758231227411
:20052000D7B580047582322274E7B58004758233227580FB74BBB580047582342274DBB5D7
:2005400080047582352274EBB58004758236227580FD74BDB580047582372274DDB58004AC
:200560007582382274EDB58004758239227580FE74BEB5800475822A2274DEB5800475821B
:0F058000302274EEB5800475822322758200222A
:20005400C000A88118C0D0B6001B18B610004015B637005010C0E0E65407B406005004E6D5
:0A00740054F8F6D0E0D0D0D00032EE
:1C058F0020F71430F6148883A88220F507E6A88375830022E280F7E49322E0227B
:00000001FF
